{
  "_format": "hh-sol-artifact-1",
  "contractName": "PeerToPeerLending",
  "sourceName": "contracts/PeerToPeerLending.sol",
  "abi": [
    {
      "anonymous": false,
      "inputs": [
        {
          "indexed": false,
          "internalType": "uint256",
          "name": "loanId",
          "type": "uint256"
        },
        {
          "indexed": false,
          "internalType": "address",
          "name": "borrower",
          "type": "address"
        },
        {
          "indexed": false,
          "internalType": "uint256",
          "name": "amount",
          "type": "uint256"
        },
        {
          "indexed": false,
          "internalType": "uint256",
          "name": "interestRate",
          "type": "uint256"
        },
        {
          "indexed": false,
          "internalType": "uint256",
          "name": "duration",
          "type": "uint256"
        },
        {
          "indexed": false,
          "internalType": "uint256",
          "name": "collateral",
          "type": "uint256"
        }
      ],
      "name": "LoanCreated",
      "type": "event"
    },
    {
      "anonymous": false,
      "inputs": [
        {
          "indexed": false,
          "internalType": "uint256",
          "name": "loanId",
          "type": "uint256"
        }
      ],
      "name": "LoanDefaulted",
      "type": "event"
    },
    {
      "anonymous": false,
      "inputs": [
        {
          "indexed": false,
          "internalType": "uint256",
          "name": "loanId",
          "type": "uint256"
        }
      ],
      "name": "LoanRepaid",
      "type": "event"
    },
    {
      "inputs": [
        {
          "internalType": "uint256",
          "name": "_loanId",
          "type": "uint256"
        }
      ],
      "name": "checkDefault",
      "outputs": [],
      "stateMutability": "nonpayable",
      "type": "function"
    },
    {
      "inputs": [
        {
          "internalType": "uint256",
          "name": "_amount",
          "type": "uint256"
        },
        {
          "internalType": "uint256",
          "name": "_interestRate",
          "type": "uint256"
        },
        {
          "internalType": "uint256",
          "name": "_duration",
          "type": "uint256"
        },
        {
          "internalType": "uint256",
          "name": "_collateral",
          "type": "uint256"
        }
      ],
      "name": "createLoan",
      "outputs": [],
      "stateMutability": "nonpayable",
      "type": "function"
    },
    {
      "inputs": [],
      "name": "loanCount",
      "outputs": [
        {
          "internalType": "uint256",
          "name": "",
          "type": "uint256"
        }
      ],
      "stateMutability": "view",
      "type": "function"
    },
    {
      "inputs": [
        {
          "internalType": "uint256",
          "name": "",
          "type": "uint256"
        }
      ],
      "name": "loans",
      "outputs": [
        {
          "internalType": "address",
          "name": "borrower",
          "type": "address"
        },
        {
          "internalType": "uint256",
          "name": "amount",
          "type": "uint256"
        },
        {
          "internalType": "uint256",
          "name": "interestRate",
          "type": "uint256"
        },
        {
          "internalType": "uint256",
          "name": "duration",
          "type": "uint256"
        },
        {
          "internalType": "uint256",
          "name": "collateral",
          "type": "uint256"
        },
        {
          "internalType": "bool",
          "name": "isActive",
          "type": "bool"
        }
      ],
      "stateMutability": "view",
      "type": "function"
    },
    {
      "inputs": [
        {
          "internalType": "uint256",
          "name": "_loanId",
          "type": "uint256"
        }
      ],
      "name": "repayLoan",
      "outputs": [],
      "stateMutability": "payable",
      "type": "function"
    }
  ],
  "bytecode": "0x608060405234801561001057600080fd5b50610cb2806100206000396000f3fe60806040526004361061004a5760003560e01c8063759135a11461004f578063ab7b1c8914610078578063b9fae65014610094578063ce63094d146100bd578063e1ec3c68146100e8575b600080fd5b34801561005b57600080fd5b506100766004803603810190610071919061066e565b61012a565b005b610092600480360381019061008d919061066e565b61022f565b005b3480156100a057600080fd5b506100bb60048036038101906100b6919061069b565b6103f1565b005b3480156100c957600080fd5b506100d26105c4565b6040516100df9190610711565b60405180910390f35b3480156100f457600080fd5b5061010f600480360381019061010a919061066e565b6105ca565b60405161012196959493929190610788565b60405180910390f35b600080600083815260200190815260200160002090508060050160009054906101000a900460ff16610191576040517f08c379a000000000000000000000000000000000000000000000000000000000815260040161018890610846565b60405180910390fd5b806003015442116101d7576040517f08c379a00000000000000000000000000000000000000000000000000000000081526004016101ce906108b2565b60405180910390fd5b60008160050160006101000a81548160ff0219169083151502179055507f0789b7097e8066538cfaa1132488b132e14ba5f0c938c8b7aaf8cf40356aab0b826040516102239190610711565b60405180910390a15050565b600080600083815260200190815260200160002090508060050160009054906101000a900460ff16610296576040517f08c379a000000000000000000000000000000000000000000000000000000000815260040161028d90610846565b60405180910390fd5b8060000160009054906101000a900473ffffffffffffffffffffffffffffffffffffffff1673ffffffffffffffffffffffffffffffffffffffff163373ffffffffffffffffffffffffffffffffffffffff1614610328576040517f08c379a000000000000000000000000000000000000000000000000000000000815260040161031f90610944565b60405180910390fd5b6127108160020154826001015461033f9190610993565b6103499190610a04565b81600101546103589190610a35565b3414610399576040517f08c379a000000000000000000000000000000000000000000000000000000000815260040161039090610ab5565b60405180910390fd5b60008160050160006101000a81548160ff0219169083151502179055507f9a7851747cd7ffb3fe0a32caf3da48b31f27cebe131267051640f8b72fc47186826040516103e59190610711565b60405180910390a15050565b60008411610434576040517f08c379a000000000000000000000000000000000000000000000000000000000815260040161042b90610b21565b60405180910390fd5b83811015610477576040517f08c379a000000000000000000000000000000000000000000000000000000000815260040161046e90610bb3565b60405180910390fd5b6001600081548092919061048a90610bd3565b91905055506040518060c001604052803373ffffffffffffffffffffffffffffffffffffffff16815260200185815260200184815260200183815260200182815260200160011515815250600080600154815260200190815260200160002060008201518160000160006101000a81548173ffffffffffffffffffffffffffffffffffffffff021916908373ffffffffffffffffffffffffffffffffffffffff1602179055506020820151816001015560408201518160020155606082015181600301556080820151816004015560a08201518160050160006101000a81548160ff0219169083151502179055509050507f2b6e7be0390a80ec9c24c00d1dbf95d0cc27e42970c49fdd9d2d9f8b7a87646660015433868686866040516105b696959493929190610c1b565b60405180910390a150505050565b60015481565b60006020528060005260406000206000915090508060000160009054906101000a900473ffffffffffffffffffffffffffffffffffffffff16908060010154908060020154908060030154908060040154908060050160009054906101000a900460ff16905086565b600080fd5b6000819050919050565b61064b81610638565b811461065657600080fd5b50565b60008135905061066881610642565b92915050565b60006020828403121561068457610683610633565b5b600061069284828501610659565b91505092915050565b600080600080608085870312156106b5576106b4610633565b5b60006106c387828801610659565b94505060206106d487828801610659565b93505060406106e587828801610659565b92505060606106f687828801610659565b91505092959194509250565b61070b81610638565b82525050565b60006020820190506107266000830184610702565b92915050565b600073ffffffffffffffffffffffffffffffffffffffff82169050919050565b60006107578261072c565b9050919050565b6107678161074c565b82525050565b60008115159050919050565b6107828161076d565b82525050565b600060c08201905061079d600083018961075e565b6107aa6020830188610702565b6107b76040830187610702565b6107c46060830186610702565b6107d16080830185610702565b6107de60a0830184610779565b979650505050505050565b600082825260208201905092915050565b7f4c6f616e206973206e6f74206163746976650000000000000000000000000000600082015250565b60006108306012836107e9565b915061083b826107fa565b602082019050919050565b6000602082019050818103600083015261085f81610823565b9050919050565b7f4c6f616e206475726174696f6e20686173206e6f742065787069726564000000600082015250565b600061089c601d836107e9565b91506108a782610866565b602082019050919050565b600060208201905081810360008301526108cb8161088f565b9050919050565b7f4f6e6c792074686520626f72726f7765722063616e207265706179207468652060008201527f6c6f616e00000000000000000000000000000000000000000000000000000000602082015250565b600061092e6024836107e9565b9150610939826108d2565b604082019050919050565b6000602082019050818103600083015261095d81610921565b9050919050565b7f4e487b7100000000000000000000000000000000000000000000000000000000600052601160045260246000fd5b600061099e82610638565b91506109a983610638565b92508282026109b781610638565b915082820484148315176109ce576109cd610964565b5b5092915050565b7f4e487b7100000000000000000000000000000000000000000000000000000000600052601260045260246000fd5b6000610a0f82610638565b9150610a1a83610638565b925082610a2a57610a296109d5565b5b828204905092915050565b6000610a4082610638565b9150610a4b83610638565b9250828201905080821115610a6357610a62610964565b5b92915050565b7f496e636f72726563742072657061796d656e7420616d6f756e74000000000000600082015250565b6000610a9f601a836107e9565b9150610aaa82610a69565b602082019050919050565b60006020820190508181036000830152610ace81610a92565b9050919050565b7f416d6f756e74206d7573742062652067726561746572207468616e2030000000600082015250565b6000610b0b601d836107e9565b9150610b1682610ad5565b602082019050919050565b60006020820190508181036000830152610b3a81610afe565b9050919050565b7f436f6c6c61746572616c206d757374206265206174206c65617374206571756160008201527f6c20746f20746865206c6f616e20616d6f756e74000000000000000000000000602082015250565b6000610b9d6034836107e9565b9150610ba882610b41565b604082019050919050565b60006020820190508181036000830152610bcc81610b90565b9050919050565b6000610bde82610638565b91507fffffffffffffffffffffffffffffffffffffffffffffffffffffffffffffffff8203610c1057610c0f610964565b5b600182019050919050565b600060c082019050610c306000830189610702565b610c3d602083018861075e565b610c4a6040830187610702565b610c576060830186610702565b610c646080830185610702565b610c7160a0830184610702565b97965050505050505056fea26469706673582212200b8a95992dee2ab5374b42e353ea1cf02134855cbb1c1499929b62b98be2d05864736f6c63430008180033",
  "linkReferences": {},
  "deployedLinkReferences": {}
}